:100000000C9434000C9449000C9449000C94490061
:100010000C9449000C9449000C9449000C9449003C
:100020000C9449000C9449000C9449000C9449002C
:100030000C9449000C9449000C9449000C9449001C
:100040000C9449000C9449000C9449000C9449000C
:100050000C9449000C9449000C9449000C944900FC
:100060000C9449000C94490011241FBECFEFD8E036
:10007000DEBFCDBF11E0A0E0B1E0E4E0F4E002C0FB
:1000800005900D92AA32B107D9F70E9418010C947D
:1000900000020C940000882321F0439A459A459869
:1000A00008954398FBCF1F93CF93DF93C82FD62F8C
:1000B000142F822F0E944B00812F0E944B008D2F06
:1000C0000E944B00C1FB882780F90E944B008C2FB7
:1000D0008170DF91CF911F910C944B00E0EBF0E029
:1000E00080818360808380818068808388EC8093B6
:1000F000B300E1EBF0E080818460808308959BB1E0
:100100009F70807F982B9BB9299A299A29980895E6
:10011000CF93C82F28980E947F008C2F8295807FD4
:100120000E947F008FE39FE10197F1F700C000007C
:10013000CF910895811104C06058862F0C948800D7
:100140006054FBCF8AB1806F8AB984B1836084B96F
:100150008FE59AEE0197F1F700C0000080E30E945E
:100160007F008FE19EE40197F1F700C0000080E37B
:100170000E947F008FED91E00197F1F700C0000031
:1001800080E30E947F0080E20E947F008FE39FE176
:100190000197F1F700C0000088E20E9488008FE01C
:1001A0000C948800CF93C82F289A0E947F008C2F30
:1001B0008295807F0E947F008FE39FE10197F1F796
:1001C00000C00000CF910895CF93DF93EC01899197
:1001D000811103C0DF91CF9108950E94D200F7CF23
:1001E000ECE7F0E08081806480838081806280839E
:1001F000EAE7F0E080818760808380818068808387
:10020000089590917C00907F90937C0090917C0069
:100210008F70892B80937C0080917A00806480931A
:100220007A0080917A0086FDFCCF80917900089554
:10023000CDB7DEB72D970FB6F894DEBF0FBECDBF9A
:100240000E94A2000E94F000239A3B9A3D9A0E94CD
:100250006E0081E00E9488008AE0EFE1F1E0DE01BB
:10026000119601900D928A95E1F760E080E00E947E
:100270009A00CE0101960E94E4002FEF83ED90E3F7
:10028000215080409040E1F700C0000081E00E94D2
:10029000880060E080E00E949A0080E091E00E9487
:1002A000E40060E081E00E949A0087E091E00E9413
:1002B000E40081E08D878C878B87FF24F39410E026
:1002C0006E01EEE0CE0ED11C81E00E940101809310
:1002D000B30080E00E940101082F87E7800F0431FE
:1002E00008F053C0123008F050C0F12EFF0CF10E90
:1002F00067E06F0D81E00E949A0080E20E94D200C8
:100300001F5F6AE06F0D81E00E949A008EE30E94F9
:10031000D200FFEF23EC89E0F15020408040E1F76C
:1003200000C00000FF24F39480EE800F873208F0B5
:100330004DC0EBE0F0E0EC0FFD1FE10FF11D10826E
:100340002FEF83EC99E0215080409040E1F700C00E
:10035000000068E080E00E949A007E018BE0E80ED9
:10036000F11CF70181917F01882309F446C087E1E0
:1003700091E00E94E400CE14DF0499F72D854C85AE
:100380006B85812F0E94530036C0873268F6112397
:1003900059F2612F660F610F695F81E00E949A0038
:1003A00080E20E94D2001150612F660F610F695FD9
:1003B00081E00E949A008EE30E94D2009FEFE3EC5E
:1003C000F9E09150E040F040E1F7AACF0355073241
:1003D00080F481E0EBE0F0E0EC0FFD1FE10FF11D98
:1003E0008083EFEFF3EC29E0E150F0402040E1F7AB
:1003F000AECFF110AECFF12C67CF8BE191E0B9CF4A
:04040000F894FFCF9E
:100404004C6576656C3A00436F6C6F723A203E52CD
:1004140020204720204200502020002A2020005283
:0A0424006F626572742046616E007D
:00000001FF
