:100000000C9434000C943E000C943E000C943E0082
:100010000C943E000C943E000C943E000C943E0068
:100020000C943E000C943E000C943E000C943E0058
:100030000C943E000C943E000C943E000C943E0048
:100040000C943E000C943E000C943E000C943E0038
:100050000C943E000C943E000C943E000C943E0028
:100060000C943E000C943E0011241FBECFEFD8E04C
:10007000DEBFCDBF0E94B1000C9424010C9400009F
:100080009BB19F70807F982B9BB9299A299A2998B8
:100090000895CF93C82F28980E9440008C2F8295F6
:1000A000807F0E9440008FE39FE10197F1F700C03D
:1000B0000000CF910895811104C06058862F0C94E0
:1000C00049006054FBCF8AB1806F8AB984B18360E4
:1000D00084B98FE59AEE0197F1F700C0000080E344
:1000E0000E9440008FE19EE40197F1F700C00000FC
:1000F00080E30E9440008FED91E00197F1F700C08E
:10010000000080E30E94400080E20E9440008FE3F4
:100110009FE10197F1F700C0000088E20E944900CA
:100120008FE00C944900CF93C82F289A0E9440007A
:100130008C2F8295807F0E9440008FE39FE1019782
:10014000F1F700C00000CF910895CF93DF93EC0149
:100150008991811103C0DF91CF9108950E9493008E
:10016000F7CF23983C983A982B9A88B1876188B941
:100170000E94630090E080E010E000E02FEFC0E01C
:100180003AE0E32EF12C329B28C0349B29C01B9906
:1001900002C002E010E0EFE1FEE43197F1F700C0A9
:1001A000000001968436910574F301151105D9F408
:1001B0008C2FCC0F990B0196B7010E94FC00C82F21
:1001C000C21739F081E00E94490080E38C0F0E9441
:1001D00093002C2F90E080E0D6CF10E000E0DBCF42
:1001E00001E010E0D8CF0130110551F7CC2311F018
:1001F000C150E6CFC9E0E4CF97FB072E16F4009478
:1002000007D077FD09D00E94100107FC05D03EF40D
:10021000909581959F4F0895709561957F4F0895B2
:10022000AA1BBB1B51E107C0AA1FBB1FA617B7071C
:1002300010F0A61BB70B881F991F5A95A9F7809538
:0C0240009095BC01CD010895F894FFCF0B
:00000001FF
