:100000000C9434000C9451000C9451000C94510049
:100010000C9451000C9451000C9451000C9451001C
:100020000C9451000C9451000C9451000C947C00E1
:100030000C9451000C9451000C9451000C945100FC
:100040000C9451000C9451000C9451000C945100EC
:100050000C9451000C9451000C9451000C945100DC
:100060000C9451000C94510011241FBECFEFD8E026
:10007000DEBFCDBF11E0A0E0B1E0E6E8F3E002C0F2
:1000800005900D92A831B107D9F721E0A8E1B1E0C0
:1000900001C01D92AB31B207E1F70E9418010C9428
:1000A000C1010C940000EFE1FEE43197F1F700C0CC
:1000B000000021E030E002C0220F331F8A95E2F7F2
:1000C00086B190E082239323892BD1F38FE19EE4C4
:1000D0000197F1F700C000000895E1E8F0E08081A9
:1000E0008860808389E698E19093890080938800F6
:1000F00080818460808308951F921FB61F9211240F
:100100008F9380911A018F5F80931A0180911A0159
:100110008A30C0F010921A01809119018F5F80938C
:100120001901809119018A3068F0109219018091AB
:1001300018018F5F8093180180911801863010F0AC
:10014000109218018F911F901FBE1F9018959BB1A0
:100150009F70807F982B9BB9299A299A2998089596
:10016000CF93C82F28980E94A7008C2F8295807F5C
:100170000E94A7008FE39FE10197F1F700C0000004
:10018000CF910895811104C06058862F0C94B0005F
:100190006054FBCF8AB1806F8AB984B1836084B91F
:1001A0008FE59AEE0197F1F700C0000080E30E940E
:1001B000A7008FE19EE40197F1F700C0000080E303
:1001C0000E94A7008FED91E00197F1F700C00000B9
:1001D00080E30E94A70080E20E94A7008FE39FE1D6
:1001E0000197F1F700C0000088E20E94B0008FE0A4
:1001F0000C94B000CF93C82F289A0E94A7008C2F90
:100200008295807F0E94A7008FE39FE10197F1F71D
:1002100000C00000CF910895CF93DF93EC01899146
:10022000811103C0DF91CF9108950E94FA00F7CFAA
:10023000CDB7DEB766970FB6F894DEBF0FBECDBF61
:100240000E94CA000E946D0088B1846188B98AE06A
:10025000E0E0F1E0DE011D9601900D928A95E1F754
:1002600063E080E00E94C200CE010D960E940C0166
:100270008CE0EBE0F1E0DE01119601900D928A95A1
:10028000E1F763E081E00E94C200CE0101960E9486
:100290000C012FEF83ED90E3215080409040E1F777
:1002A00000C0000081E00E94B000789410E086B1A8
:1002B0008471111136C0803141F58FE19EE40197C0
:1002C000F1F700C0000080916F00826080936F00A2
:1002D00011E060E080E00E94C20080911801882354
:1002E00009F44DC080911801805D0E94FA00809150
:1002F0001901805D0E94FA008EE20E94FA0080914E
:100300001A01805D0E94FA00D2CF843011F782E09A
:100310000E94530010921A011092190110921801B4
:10032000D8CF113051F48431A1F68FE19EE40197CA
:10033000F1F700C0000012E0CCCF123099F4803108
:1003400051F480916F008D7F80936F0082E00E9456
:10035000530010E0BECF843009F0BBCF0E945300A1
:1003600013E0A5CF133009F0B4CF803121F482E03F
:100370000E945300E0CF843009F099CFF9CF80E29A
:06038000B4CFF894FFCF9A
:10038600526F626572742046616E004545313039A0
:08039600204C616220350000DB
:00000001FF
