:100000000C9434000C9451000C9451000C94510049
:100010000C9488000C9451000C9451000C945100E5
:100020000C9451000C9451000C9451000C947601E6
:100030000C9451000C9451000C9451000C945100FC
:100040000C9451000C9451000C9451000C945100EC
:100050000C9451000C9451000C9451000C945100DC
:100060000C9451000C94510011241FBECFEFD8E026
:10007000DEBFCDBF11E0A0E0B1E0E2EBFCE002C0EA
:1000800005900D92AC34B107D9F721E0ACE4B1E0B2
:1000900001C01D92A735B207E1F70E9417020C9428
:1000A00057060C940000880F991FB0E0A0E08093E1
:1000B000510190935201A0935301B09354012091A8
:1000C000510130915201409153015091540160E02F
:1000D00074E284EF90E00E943E0330938900209305
:1000E0008800E1E8F0E08081887F80838081816002
:1000F0008083089505966AE070E00E942A036150AB
:10010000710908F4089585E38A95F1F70000F7CFA7
:100110001F920F920FB60F9211242F933F934F937C
:100120005F936F937F938F939F93AF93BF93EF935F
:10013000FF93CF93DF93CDB7DEB72A97DEBFCDBF56
:1001400086B1082E000C990B9C01359527952170DE
:100150002093560155E0959587955A95E1F7817062
:1001600080934F0190914F01809156011F929F9370
:100170001F928F9380E191E09F938F931F928AE06B
:100180008F93CE0101969F938F930E947403809169
:1001900050010FB6F894DEBF0FBECDBF811146C02F
:1001A00020915601213089F580914C0190914D01AB
:1001B000019690934D0180934C01209355019091AD
:1001C000550180915001981739F081E080934E01DC
:1001D00080915501809350012A960FB6F894DEBFA6
:1001E0000FBECDBFDF91CF91FF91EF91BF91AF9146
:1001F0009F918F917F916F915F914F913F912F913F
:100200000F900FBE0F901F90189580914F01813075
:10021000B1F680914C0190914D01019790934D0161
:1002200080934C0183E080935501C9CF80915001A8
:10023000813001F58091560181110CC080914C01F3
:1002400090914D01019790934D0180934C01109234
:100250005501B5CF80914F01813009F0B0CF809129
:100260004C0190914D01019690934D0180934C016A
:1002700082E0D9CF809150018230C9F4809156013B
:10028000811106C080914C0190914D010196C6CF1D
:1002900080914F01811193CF80914C0190914D013C
:1002A000019790934D0180934C0181E0BCCF8091E8
:1002B0005601813031F480914C0190914D010197AC
:1002C000D3CF80914F0181117ACF80914C019091D1
:1002D0004D010196B8CFE1E8F0E08081886080832D
:1002E000EFE6F0E080818260808308951F921FB660
:1002F0001F9211248F939F93AF93BF9385B190E189
:10030000892785B98091510190915201A0915301A3
:10031000B09154010197A109B109809351019093C3
:100320005201A0935301B09354010097A105B10568
:1003300029F480918100887F80938100BF91AF91E3
:100340009F918F911F901FBE1F9018959BB19F701A
:10035000807F982B9BB9299A299A29980895CF9341
:10036000C82F28980E94A6018C2F8295807F0E941A
:10037000A6018FE39FE10197F1F700C00000CF9144
:100380000895811104C06058862F0C94AF01605409
:10039000FBCF8AB1806F8AB984B1836084B98FE55D
:1003A0009AEE0197F1F700C0000080E30E94A601D9
:1003B0008FE19EE40197F1F700C0000080E30E9406
:1003C000A6018FED91E00197F1F700C0000080E3F6
:1003D0000E94A60180E20E94A6018FE39FE101979F
:1003E000F1F700C0000088E20E94AF018FE00C949A
:1003F000AF01CF93C82F289A0E94A6018C2F829517
:10040000807F0E94A6018FE39FE10197F1F700C072
:100410000000CF910895CF93DF93EC018991811172
:1004200003C0DF91CF9108950E94F901F7CFCDB7B6
:10043000DEB7E8970FB6F894DEBF0FBECDBF0E94BF
:10044000C9010E946B01249A88B1826288B98AE04E
:10045000E5E3F1E0DE019F9601900D928A95E1F7C8
:100460001F9284E08F931F9285E08F931F9281E00B
:100470008F938AE191E09F938F931F9281E18F93F5
:100480008E010E5E1F4F1F930F930E94740363E053
:1004900080E00E94C101CE018F960E940B0263E0B2
:1004A00081E00E94C101C8010E940B022FEF33EDD1
:1004B00080E3215030408040E1F700C0000081E03F
:1004C0000E94AF0186B1082E000C990B9C01359556
:1004D000279521702093560165E0959587956A953B
:1004E000E1F7817080934F0180914F010FB6F8942E
:1004F000DEBF0FBECDBF811195C080915601811125
:1005000091C01092500180915001809355018CE070
:10051000E0E4F1E0DE01939601900D928A95E1F717
:1005200063E080E00E94C101CE018F960E940B0221
:1005300063E081E00E94C101CE0183960E940B021C
:100540003FEF83ED90E3315080409040E1F700C0F1
:10055000000081E00E94AF0180916800826080937A
:10056000680080916C00826280936C00789409E24C
:1005700011E021E1922E9E012F5F3F4F790130E47F
:10058000C32ED12C48EFA42EBB24BA9480914E01E7
:100590008823E1F310924E0160E081E00E94C101E6
:1005A00080914C0190914D019F938F931F930F93D6
:1005B0001F929F92FF92EF920E947403C7010E94C4
:1005C0000B0280914C0190914D01877099270FB6D5
:1005D000F894DEBF0FBECDBF892BC1F680914C01D0
:1005E00090914D01892B91F280914C0190914D0198
:1005F00097FF04C09501281B390BC901B6010E9461
:100600002A0397FD0796FC0183E0F595E7958A9507
:10061000E1F7EE0FFF1FE050FF4F808191810E94B4
:100620005300B4CF80914F01811108C080915601D1
:10063000882321F081E08093500165CF80914F01A4
:10064000882331F080915601811102C082E0F3CFFE
:1006500083E0F1CF97FB072E16F4009407D077FDC7
:1006600009D00E94600307FC05D03EF49095819567
:100670009F4F0895709561957F4F0895A1E21A2EBE
:10068000AA1BBB1BFD010DC0AA1FBB1FEE1FFF1F36
:10069000A217B307E407F50720F0A21BB30BE40B86
:1006A000F50B661F771F881F991F1A9469F76095CD
:1006B0007095809590959B01AC01BD01CF01089587
:1006C000AA1BBB1B51E107C0AA1FBB1FA617B70778
:1006D00010F0A61BB70B881F991F5A95A9F7809594
:1006E0009095BC01CD010895AEE0B0E0EAE7F3E0FB
:1006F0000C942E060D891E898F89988D26E02C83F7
:100700001A83098397FF02C080E090E801979E83D7
:100710008D83AE01455E5F4F698D7A8DCE01019666
:100720000E94A4034D815E8157FD0AC02F81388548
:10073000421753070CF49A01020F131FF80110829D
:100740002E96E4E00C944A06AFE0B0E0EAEAF3E06B
:100750000C9420067C013B018A01DC0117961C9257
:100760001E92169713968C9181FFC3C19AE0292E91
:10077000FE0131964F01D70113969C91F30193FD31
:10078000859193FF81913F01882309F448C1853207
:1007900039F493FD859193FF81913F01853229F4CE
:1007A000B70190E00E949205E6CFB12C412C512C6C
:1007B000BFE1B51538F08B3209F188F4803201F1D0
:1007C000833221F157FC3AC020ED280F2A3040F542
:1007D00056FE1FC0B29C200D1124B22E06C08D32D1
:1007E00091F0803379F7689450F8F30193FD859187
:1007F00093FF81913F018111DBCF20C0689451F8B4
:10080000689452F8F2CF689453F8EFCF689454F894
:10081000ECCF429C200D1124422E689455F8E5CF70
:100820008E3229F456FCFBC0689456F8DECF8C3625
:1008300019F4689457F8D9CF8836B9F2982F9F7D6C
:1008400095549330C0F08336A1F18337C1F18335DD
:1008500009F05BC0D801CD90DD908D016B2D70E06B
:1008600056FC02C06FEF7FEFC6010E947C055C0161
:10087000689457F80AC00C5F1F4FEFE3E983AA247E
:10088000A394B12C6401E89457F853FC04C04A14B3
:100890001B0409F018F5342CA114B10431F53320F0
:1008A00009F469CFB70180E290E00E9492053A9482
:1008B000F6CFD8018C9189830E5F1F4FE0CFF801EE
:1008C000C190D1908F016B2D70E056FC02C06FEF8C
:1008D0007FEFC6010E9487055C01D5CFB70180E29A
:1008E00090E00E9492054A94D2CFF60157FC859180
:1008F00057FE81916F01B70190E00E94920531107F
:100900003A94B1E0AB1AB108C7CF843619F08936F2
:1009100009F074C0F80157FE6AC06191719181912C
:1009200091918F01E52DEF76DE2E97FF09C090950E
:100930008095709561957F4F8F4F9F4F6894D7F842
:100940002AE030E0A4010E94C205C82EC818AC2CD1
:100950005D2CD6FE0CC0E89450F8CB1440F4D4FEC5
:1009600005C0D2FC03C05D2D5E7E552EAB2C54FE1F
:1009700098C0FE01EC0DF11D8081803309F08AC022
:10098000652D697E562E752D7870372E53FC98C0D4
:1009900050FE92C0BC2CA41418F44C0CB42CBA1801
:1009A00054FE94C0B70180E390E00E94920552FE8D
:1009B00009C088E790E051FE02C088E590E0B701E9
:1009C0000E949205CB1408F48DC0CA94D12C8FEFED
:1009D000C81AD80AC80CD91CD6018E916D01B7016E
:1009E00090E00E9492058C149D04B1F758CF61915C
:1009F0007191072E000C880B990B93CFD52CE8949E
:100A0000D4F82AE030E0853739F1F52DF97FDF2E73
:100A10008037A9F058F48835A9F08F36D9F0F7015E
:100A2000868197812F96E2E10C943C068837B9F7CE
:100A3000D4FE02C06894D2F820E130E00DC0689482
:100A4000D4F8F6CF54FE03C02F2F2660D22E20E11B
:100A500032E002C028E030E0F801D7FE15C0419135
:100A60005191619171914C875D876E877F878F016E
:100A7000A4016C857D858E859F850E94C205C82E48
:100A8000C818E894D7F863CF81919191AC0170E0D8
:100A900060E0E9CF52FC02C0A39475CFA394A39465
:100AA00072CF852D867809F46ECFF6CFB70180E23C
:100AB00090E00E949205A394A414C0F3312C70CF4F
:100AC000342C3A18A41408F46BCFF8CF852D86780F
:100AD00009F478CF8BE251FE80E257FC8DE2B7013A
:100AE00090E06ECFB70180E390E00E949205BA9447
:100AF00069CF8FEF9FEF96CFFC010590615070405A
:100B00000110D8F7809590958E0F9F1F0895FC01D6
:100B10006150704001900110D8F7809590958E0F2C
:100B20009F1F08950F931F93CF93DF93182F092FC3
:100B3000EB018B8181FD09C01FEF0FEF812F902FFB
:100B4000DF91CF911F910F91089582FF14C02E81E4
:100B50003F818C819D81281739073CF4E881F98118
:100B6000CF0101969983888310838E819F8101969E
:100B70009F838E83E3CFE885F985812F0995892BA3
:100B8000A1F3DACFFA01AA27283051F1203181F1FF
:100B9000E8946F936E7F6E5F7F4F8F4F9F4FAF4F85
:100BA000B1E03ED0B4E03CD0670F781F891F9A1F98
:100BB000A11D680F791F8A1F911DA11D6A0F711D4C
:100BC000811D911DA11D20D009F468943F912AE058
:100BD000269F11243019305D3193DEF6CF01089540
:100BE000462F4770405D4193B3E00FD0C9F7F6CF71
:100BF000462F4F70405D4A3318F0495D31FD405239
:100C0000419302D0A9F7EACFB4E0A69597958795CE
:100C100077956795BA95C9F70097610571050895AD
:100C20009B01AC010A2E0694579547953795279559
:100C3000BA95C9F7620F731F841F951FA01D0895F1
:100C40002F923F924F925F926F927F928F929F92DC
:100C5000AF92BF92CF92DF92EF92FF920F931F93CA
:100C6000CF93DF93CDB7DEB7CA1BDB0B0FB6F8947B
:100C7000DEBF0FBECDBF09942A88398848885F84BB
:100C80006E847D848C849B84AA84B984C884DF802C
:100C9000EE80FD800C811B81AA81B981CE0FD11D10
:100CA0000FB6F894DEBF0FBECDBFED010895F894E6
:020CB000FFCF74
:100CB200060126014A015D018801B801EE010B021D
:100CC200413D256420423D256400253032642F25B4
:100CD2003032642F2530326400436F756E74203DCC
:100CE2002025336400526F626572742046616E0083
:0C0CF2004545313039204C61622036004D
:00000001FF
