:100000000C9434000C9449000C9449000C94490061
:100010000C9449000C9449000C9449000C9449003C
:100020000C9449000C9449000C9449000C9449002C
:100030000C9449000C9449000C9449000C9449001C
:100040000C9449000C9449000C9449000C9449000C
:100050000C9449000C9449000C9449000C944900FC
:100060000C9449000C94490011241FBECFEFD8E036
:10007000DEBFCDBF11E0A0E0B1E0ECE5F8E002C0EA
:1000800005900D92AA31B107D9F70E94F5000C94A2
:100090002C040C940000E0EBF0E08081836080830E
:1000A00080818068808386E18093B300E1EBF0E09B
:1000B00080818760808308959BB19F70807F982B9B
:1000C0009BB9299A299A29980895CF93C82F2898DF
:1000D0000E945C008C2F8295807F0E945C008FE3E1
:1000E0009FE10197F1F700C00000CF9108958111C1
:1000F00004C06058862F0C9465006054FBCF8AB111
:10010000806F8AB984B1836084B98FE59AEE0197D4
:10011000F1F700C0000080E30E945C008FE19EE4E4
:100120000197F1F700C0000080E30E945C008FEDB2
:1001300091E00197F1F700C0000080E30E945C00AD
:1001400080E20E945C008FE39FE10197F1F700C01D
:10015000000088E20E9465008FE00C946500CF9358
:10016000C82F289A0E945C008C2F8295807F0E9465
:100170005C008FE39FE10197F1F700C00000CF9191
:100180000895CF93DF93EC018991811103C0DF9132
:10019000CF9108950E94AF00F7CFECE7F0E08081A7
:1001A00080648083808180628083EAE7F0E08081E0
:1001B00087608083808180688083089590917C002F
:1001C000907F90937C0090917C008F70892B80931E
:1001D0007C0080917A00806480937A0080917A001C
:1001E00086FDFCCF809179000895CDB7DEB76B977F
:1001F0000FB6F894DEBF0FBECDBF0E947F0088B15E
:10020000826288B9239A0E94CD000E944B008AE046
:10021000EEE0F1E0DE01529601900D928A95E1F751
:1002200063E080E00E947700CE0142960E94C10008
:100230002FEF83ED90E3215080409040E1F700C024
:10024000000081E00E94650082E0E82E81E0F82E47
:1002500091E1D92E8E010F5F1F4F80E00E94DE00DA
:100260008093B3001F928F93FF92EF921F92DF92C1
:100270001F930F930E94490160E080E00E94770085
:10028000C8010E94C1000FB6F894DEBF0FBECDBFFB
:10029000E4CFAEE0B0E0EFE4F1E00C9403040D89AC
:1002A0001E898F89988D26E02C831A83098397FFF6
:1002B00002C080E090E801979E838D83AE01455E89
:1002C0005F4F698D7A8DCE0101960E9479014D8133
:1002D0005E8157FD0AC02F813885421753070CF401
:1002E0009A01020F131FF80110822E96E4E00C947D
:1002F0001F04AFE0B0E0EFE7F1E00C94F5037C0100
:100300003B018A01DC0117961C921E9216971396E8
:100310008C9181FFC3C19AE0292EFE0131964F01D5
:10032000D70113969C91F30193FD859193FF8191E1
:100330003F01882309F448C1853239F493FD859142
:1003400093FF81913F01853229F4B70190E00E942B
:100350006703E6CFB12C412C512CBFE1B51538F025
:100360008B3209F188F4803201F1833221F157FC9C
:100370003AC020ED280F2A3040F556FE1FC0B29C2F
:10038000200D1124B22E06C08D3291F0803379F702
:10039000689450F8F30193FD859193FF81913F019B
:1003A0008111DBCF20C0689451F8689452F8F2CFE5
:1003B000689453F8EFCF689454F8ECCF429C200D2A
:1003C0001124422E689455F8E5CF8E3229F456FC5C
:1003D000FBC0689456F8DECF8C3619F4689457F851
:1003E000D9CF8836B9F2982F9F7D95549330C0F0BD
:1003F0008336A1F18337C1F1833509F05BC0D801A1
:10040000CD90DD908D016B2D70E056FC02C06FEF3A
:100410007FEFC6010E9451035C01689457F80AC03F
:100420000C5F1F4FEFE3E983AA24A394B12C64016E
:10043000E89457F853FC04C04A141B0409F018F55B
:10044000342CA114B10431F5332009F469CFB7017C
:1004500080E290E00E9467033A94F6CFD8018C9135
:1004600089830E5F1F4FE0CFF801C190D1908F01BB
:100470006B2D70E056FC02C06FEF7FEFC6010E944B
:100480005C035C01D5CFB70180E290E00E94670376
:100490004A94D2CFF60157FC859157FE81916F01A6
:1004A000B70190E00E94670331103A94B1E0AB1AB3
:1004B000B108C7CF843619F0893609F074C0F80145
:1004C00057FE6AC061917191819191918F01E52DE3
:1004D000EF76DE2E97FF09C0909580957095619517
:1004E0007F4F8F4F9F4F6894D7F82AE030E0A401E8
:1004F0000E949703C82EC818AC2C5D2CD6FE0CC0E9
:10050000E89450F8CB1440F4D4FE05C0D2FC03C0EC
:100510005D2D5E7E552EAB2C54FE98C0FE01EC0D79
:10052000F11D8081803309F08AC0652D697E562EC9
:10053000752D7870372E53FC98C050FE92C0BC2C9D
:10054000A41418F44C0CB42CBA1854FE94C0B7017F
:1005500080E390E00E94670352FE09C088E790E0C4
:1005600051FE02C088E590E0B7010E946703CB14FA
:1005700008F48DC0CA94D12C8FEFC81AD80AC80CC1
:10058000D91CD6018E916D01B70190E00E946703DE
:100590008C149D04B1F758CF61917191072E000C16
:1005A000880B990B93CFD52CE894D4F82AE030E04F
:1005B000853739F1F52DF97FDF2E8037A9F058F412
:1005C0008835A9F08F36D9F0F701868197812F966B
:1005D000E2E10C9411048837B9F7D4FE02C06894A4
:1005E000D2F820E130E00DC06894D4F8F6CF54FE84
:1005F00003C02F2F2660D22E20E132E002C028E077
:1006000030E0F801D7FE15C041915191619171918F
:100610004C875D876E877F878F01A4016C857D8500
:100620008E859F850E949703C82EC818E894D7F836
:1006300063CF81919191AC0170E060E0E9CF52FC11
:1006400002C0A39475CFA394A39472CF852D86780E
:1006500009F46ECFF6CFB70180E290E00E94670305
:10066000A394A414C0F3312C70CF342C3A18A414E2
:1006700008F46BCFF8CF852D867809F478CF8BE21C
:1006800051FE80E257FC8DE2B70190E06ECFB701DA
:1006900080E390E00E946703BA9469CF8FEF9FEFE9
:1006A00096CFFC010590615070400110D8F78095FD
:1006B00090958E0F9F1F0895FC016150704001902E
:1006C0000110D8F7809590958E0F9F1F08950F9376
:1006D0001F93CF93DF93182F092FEB018B8181FD9F
:1006E00009C01FEF0FEF812F902FDF91CF911F9146
:1006F0000F91089582FF14C02E813F818C819D81CE
:10070000281739073CF4E881F981CF0101969983D4
:10071000888310838E819F8101969F838E83E3CF90
:10072000E885F985812F0995892BA1F3DACFFA01A4
:10073000AA27283051F1203181F1E8946F936E7F20
:100740006E5F7F4F8F4F9F4FAF4FB1E03ED0B4E011
:100750003CD0670F781F891F9A1FA11D680F791F52
:100760008A1F911DA11D6A0F711D811D911DA11D63
:1007700020D009F468943F912AE0269F1124301973
:10078000305D3193DEF6CF010895462F4770405D0E
:100790004193B3E00FD0C9F7F6CF462F4F70405DBD
:1007A0004A3318F0495D31FD4052419302D0A9F718
:1007B000EACFB4E0A6959795879577956795BA9512
:1007C000C9F700976105710508959B01AC010A2ED8
:1007D00006945795479537952795BA95C9F7620FAF
:1007E000731F841F951FA01D08952F923F924F9253
:1007F0005F926F927F928F929F92AF92BF92CF92B1
:10080000DF92EF92FF920F931F93CF93DF93CDB7B9
:10081000DEB7CA1BDB0B0FB6F894DEBF0FBECDBF31
:1008200009942A88398848885F846E847D848C8402
:100830009B84AA84B984C884DF80EE80FD800C810B
:100840001B81AA81B981CE0FD11D0FB6F894DEBFEE
:0C0850000FBECDBFED010895F894FFCF5E
:10085C00220B6376744E756D3A2025346400526F0A
:0A086C00626572742046616E0000A0
:00000001FF
